:107C00001F92CDB7DEB7112484B714BE81FD06C024
:107C100083FF03C08983F5D08981DDD185E080931E
:107C2000810082E08093C00088E18093C10096E0EB
:107C30009093C20090E19093C400809360008EE026
:107C400080936000219A26E080E39CEF31E09093DE
:107C500085008093840036BBB09BFECF199AA8950F
:107C60002150A9F7612C712C48E1E42E58E0D52E63
:107C700063E0F62ECC24C39475E0B72EE1E1AE2E7E
:107C800083D1813469F480D189838CD18981823810
:107C9000F1F0813811F485E001C083E06ED17AC043
:107CA000823411F484E103C0853419F485E086D16F
:107CB00071C0853541F468D1682E66D1712C782A5F
:107CC000660C771C66C0863521F484E077D180E0AD
:107CD000E5CF843609F040C057D156D1982E54D103
:107CE000611480E7780618F000E011E004C0F301A9
:107CF000F7BEE895F9CF48D1F80181938F019E1224
:107D0000FACF6114F0E77F0618F0F301F7BEE895AB
:107D100049D107B600FCFDCFA301A0E0B1E08C91F2
:107D200012969D0121503109F901208190E0922B9A
:107D3000FA010C01C7BEE89511244E5F5F4FA038D1
:107D4000F1E0BF0761F7F301B7BEE89507B600FCA5
:107D5000FDCFA7BEE8951EC0843761F415D114D1BC
:107D6000182F12D11FD1F30185913F0106D1115077
:107D7000D1F710C0853739F415D18EE1FED085E9F1
:107D8000FCD08FE08BCF813521F4E0926000D0925F
:107D9000600008D180E1F1D073CF8EBD0DB407FE35
:107DA000FDCF8EB50895289885E0F7DF80E0F5DFF8
:107DB000289A81700895CF93C82F662321F060E040
:107DC00086E0F9DF289AEFDF8111FDCF28988C2F0C
:107DD000CF91E3CFCF92DF92EF92FF926B017C01C4
:107DE00060E083E0E8DF8E2DD8DF8D2DD6DF8C2D8F
:107DF000D4DF80E0D2DF289AFF90EF90DF90CF9021
:107E000008959F92AF92BF92CF92DF92EF92FF922E
:107E10000F931F93CF93DF9388E1809360001092BC
:107E2000600084B18D6284B9289A2A9A8CB58065E5
:107E30008CBD28988FE9B1DF80E0AFDF289A8150B0
:107E40008E3F08F08EC061E081E0B5DF80E0A5DF05
:107E5000289A60E070E0CB01BDDF863409F081C074
:107E600061E070E080E090E0B5DF8C3409F079C02B
:107E700062E070E080E090E0ADDF883509F071C02D
:107E800066E070E080E090E0A5DF8A3309F069C029
:107E900069E070E080E090E09DDF8A3309F061C026
:107EA00067E070E080E090E095DF082F68E070E028
:107EB00080E090E08FDF10E0102F0027082B00FDFE
:107EC00050C0199AE12CF12CC0E0D0E0BB24B3944F
:107ED00083E0A82E95E0992EC017D10768F5BE0162
:107EE000665F7F4F80E090E075DFC82ED12CBE0129
:107EF000655F7F4F80E090E06DDFD82AFE010601CC
:107F0000B7BEE89511242296CE018F779927892B49
:107F100019F0C017D10701F7F701A7BEE89507B61A
:107F200000FCFDCFF70197BEE89507B600FCFDCF3A
:107F3000F0E8EF0EF11CD0CF199881E187BFE895EA
:107F400061E088ED38DF80E028DF80E026DF80E038
:107F500024DF289A88E18093600088E080936000A5
:107F6000FFCFDF91CF911F910F91FF90EF90DF90A6
:107F7000CF90BF90AF909F9008959091C00095FFD3
:107F8000FCCF8093C6000895199A8091C00087FFA6
:107F9000FCCF8091C00084FD01C0A8958091C600EF
:107FA000199A0895F1DF803239F088E180936000FA
:107FB00088E080936000FFCF84E1DFCFCF93C82FAC
:107FC000E3DFC150E9F7CF91EDCFE0E6F0E098E1D3
:107FD000908380830895282EE0E6F0E088E1808396
:087FE0001082EE27FF2709942F
:027FFE0000057C
:0400000300007C007D
:00000001FF
